{
  "contractName": "UsersContract",
  "abi": [
    {
      "constant": false,
      "inputs": [
        {
          "name": "name",
          "type": "string"
        },
        {
          "name": "surName",
          "type": "string"
        }
      ],
      "name": "join",
      "outputs": [],
      "payable": false,
      "stateMutability": "nonpayable",
      "type": "function"
    },
    {
      "constant": true,
      "inputs": [
        {
          "name": "addr",
          "type": "address"
        }
      ],
      "name": "getUser",
      "outputs": [
        {
          "name": "",
          "type": "string"
        },
        {
          "name": "",
          "type": "string"
        }
      ],
      "payable": false,
      "stateMutability": "view",
      "type": "function"
    },
    {
      "constant": true,
      "inputs": [],
      "name": "totalUsers",
      "outputs": [
        {
          "name": "",
          "type": "uint256"
        }
      ],
      "payable": false,
      "stateMutability": "view",
      "type": "function"
    }
  ],
  "bytecode": "0x608060405234801561001057600080fd5b506107b7806100206000396000f300608060405260043610610057576000357c0100000000000000000000000000000000000000000000000000000000900463ffffffff16806329803b211461005c5780636f77926b1461010b578063bff1f9e114610233575b600080fd5b34801561006857600080fd5b50610109600480360381019080803590602001908201803590602001908080601f0160208091040260200160405190810160405280939291908181526020018383808284378201915050505050509192919290803590602001908201803590602001908080601f016020809104026020016040519081016040528093929190818152602001838380828437820191505050505050919291929050505061025e565b005b34801561011757600080fd5b5061014c600480360381019080803573ffffffffffffffffffffffffffffffffffffffff169060200190929190505050610438565b604051808060200180602001838103835285818151815260200191508051906020019080838360005b83811015610190578082015181840152602081019050610175565b50505050905090810190601f1680156101bd5780820380516001836020036101000a031916815260200191505b50838103825284818151815260200191508051906020019080838360005b838110156101f65780820151818401526020810190506101db565b50505050905090810190601f1680156102235780820380516001836020036101000a031916815260200191505b5094505050505060405180910390f35b34801561023f57600080fd5b50610248610669565b6040518082815260200191505060405180910390f35b600061026933610676565b151515610304576040517f08c379a00000000000000000000000000000000000000000000000000000000081526004018080602001828103825260238152602001807f5468652075736572206164647265737320616c7265616479207265676973746581526020017f726564000000000000000000000000000000000000000000000000000000000081525060400191505060405180910390fd5b6000803373ffffffffffffffffffffffffffffffffffffffff1673ffffffffffffffffffffffffffffffffffffffff16815260200190815260200160002090508281600001908051906020019061035c9291906106cc565b50818160010190805190602001906103759291906106cc565b5060018060003373ffffffffffffffffffffffffffffffffffffffff1673ffffffffffffffffffffffffffffffffffffffff16815260200190815260200160002060006101000a81548160ff02191690831515021790555060023390806001815401808255809150509060018203906000526020600020016000909192909190916101000a81548173ffffffffffffffffffffffffffffffffffffffff021916908373ffffffffffffffffffffffffffffffffffffffff16021790555050505050565b60608061044361074c565b61044c33610676565b15156104c0576040517f08c379a000000000000000000000000000000000000000000000000000000000815260040180806020018281038252601a8152602001807f54686520757365722061646472657373206e6f7420666f756e6400000000000081525060200191505060405180910390fd5b6000808573ffffffffffffffffffffffffffffffffffffffff1673ffffffffffffffffffffffffffffffffffffffff168152602001908152602001600020604080519081016040529081600082018054600181600116156101000203166002900480601f0160208091040260200160405190810160405280929190818152602001828054600181600116156101000203166002900480156105a25780601f10610577576101008083540402835291602001916105a2565b820191906000526020600020905b81548152906001019060200180831161058557829003601f168201915b50505050508152602001600182018054600181600116156101000203166002900480601f0160208091040260200160405190810160405280929190818152602001828054600181600116156101000203166002900480156106445780601f1061061957610100808354040283529160200191610644565b820191906000526020600020905b81548152906001019060200180831161062757829003601f168201915b5050505050815250509050806000015181602001518191508090509250925050915091565b6000600280549050905090565b6000600160008373ffffffffffffffffffffffffffffffffffffffff1673ffffffffffffffffffffffffffffffffffffffff16815260200190815260200160002060009054906101000a900460ff169050919050565b828054600181600116156101000203166002900490600052602060002090601f016020900481019282601f1061070d57805160ff191683800117855561073b565b8280016001018555821561073b579182015b8281111561073a57825182559160200191906001019061071f565b5b5090506107489190610766565b5090565b604080519081016040528060608152602001606081525090565b61078891905b8082111561078457600081600090555060010161076c565b5090565b905600a165627a7a723058203014770e33a9d18c5f6518ea24ce429919d2be18e723e403926336fad718c6170029",
  "source": "pragma solidity >= 0.4.21 < 0.6.0;\n\ncontract UsersContract {\n\n  struct User {\n    string name;\n    string surName;\n  }\n\n  mapping(address => User) private users;\n  mapping(address => bool) private joinedUsers;\n  address[] total;\n\n  function join(string memory name, string memory surName) public {\n    require(!userJoined(msg.sender), \"The user address already registered\");\n    User storage user = users[msg.sender];\n    user.name = name;\n    user.surName = surName;\n    joinedUsers[msg.sender] = true;\n    total.push(msg.sender);\n  }\n\n  function getUser(address addr) public view returns(string memory, string memory){\n    require(userJoined(msg.sender), \"The user address not found\");\n    User memory user = users[addr];\n    return (user.name, user.surName);\n  }\n\n  function userJoined(address addr) private view returns(bool) {\n    return joinedUsers[addr];\n  }\n\n  function totalUsers() public view returns(uint) {\n    return total.length;\n  }\n\n}",
  "sourcePath": "/Users/equipo-cristian/Documents/smart-contracts/ethereum-training/ethereum-truffle/contracts/UsersContract.sol",
  "compiler": {
    "name": "solc",
    "version": "0.4.25+commit.59dbf8f1.Emscripten.clang"
  },
  "schemaVersion": "2.0.2",
  "updatedAt": "2019-02-09T14:14:33.706Z"
}